{
  "contractName": "SimpleStorage",
  "abi": [
    {
      "inputs": [],
      "payable": false,
      "stateMutability": "nonpayable",
      "type": "constructor"
    },
    {
      "anonymous": false,
      "inputs": [
        {
          "indexed": false,
          "internalType": "uint256",
          "name": "id",
          "type": "uint256"
        },
        {
          "indexed": false,
          "internalType": "string",
          "name": "hash",
          "type": "string"
        },
        {
          "indexed": false,
          "internalType": "string",
          "name": "description",
          "type": "string"
        },
        {
          "indexed": false,
          "internalType": "uint256",
          "name": "tipAmount",
          "type": "uint256"
        },
        {
          "indexed": false,
          "internalType": "address payable",
          "name": "author",
          "type": "address"
        }
      ],
      "name": "ImageCreated",
      "type": "event"
    },
    {
      "anonymous": false,
      "inputs": [
        {
          "indexed": false,
          "internalType": "uint256",
          "name": "id",
          "type": "uint256"
        },
        {
          "indexed": false,
          "internalType": "string",
          "name": "hash",
          "type": "string"
        },
        {
          "indexed": false,
          "internalType": "string",
          "name": "description",
          "type": "string"
        },
        {
          "indexed": false,
          "internalType": "uint256",
          "name": "tipAmount",
          "type": "uint256"
        },
        {
          "indexed": false,
          "internalType": "address payable",
          "name": "author",
          "type": "address"
        }
      ],
      "name": "ImageTipped",
      "type": "event"
    },
    {
      "constant": true,
      "inputs": [],
      "name": "imageCount",
      "outputs": [
        {
          "internalType": "uint256",
          "name": "",
          "type": "uint256"
        }
      ],
      "payable": false,
      "stateMutability": "view",
      "type": "function"
    },
    {
      "constant": true,
      "inputs": [
        {
          "internalType": "uint256",
          "name": "",
          "type": "uint256"
        }
      ],
      "name": "images",
      "outputs": [
        {
          "internalType": "uint256",
          "name": "id",
          "type": "uint256"
        },
        {
          "internalType": "string",
          "name": "hash",
          "type": "string"
        },
        {
          "internalType": "string",
          "name": "description",
          "type": "string"
        },
        {
          "internalType": "uint256",
          "name": "tipAmount",
          "type": "uint256"
        },
        {
          "internalType": "address payable",
          "name": "author",
          "type": "address"
        }
      ],
      "payable": false,
      "stateMutability": "view",
      "type": "function"
    },
    {
      "constant": true,
      "inputs": [],
      "name": "name",
      "outputs": [
        {
          "internalType": "string",
          "name": "",
          "type": "string"
        }
      ],
      "payable": false,
      "stateMutability": "view",
      "type": "function"
    },
    {
      "constant": false,
      "inputs": [
        {
          "internalType": "string",
          "name": "_imgHash",
          "type": "string"
        },
        {
          "internalType": "string",
          "name": "_description",
          "type": "string"
        }
      ],
      "name": "uploadImage",
      "outputs": [],
      "payable": false,
      "stateMutability": "nonpayable",
      "type": "function"
    },
    {
      "constant": false,
      "inputs": [
        {
          "internalType": "uint256",
          "name": "_id",
          "type": "uint256"
        }
      ],
      "name": "tipImageOwner",
      "outputs": [],
      "payable": true,
      "stateMutability": "payable",
      "type": "function"
    }
  ],
  "bytecode": "0x6080604052600060015534801561001557600080fd5b5060408051808201909152600d8082526c53696d706c6553746f7261676560981b602090920191825261004a91600091610050565b506100eb565b828054600181600116156101000203166002900490600052602060002090601f016020900481019282601f1061009157805160ff19168380011785556100be565b828001600101855582156100be579182015b828111156100be5782518255916020019190600101906100a3565b506100ca9291506100ce565b5090565b6100e891905b808211156100ca57600081556001016100d4565b90565b610c19806100fa6000396000f3fe60806040526004361061004a5760003560e01c806306fdde031461004f57806384856482146100d95780638567ade81461020857806392053b6314610227578063a91b83141461024e575b600080fd5b34801561005b57600080fd5b50610064610388565b6040805160208082528351818301528351919283929083019185019080838360005b8381101561009e578181015183820152602001610086565b50505050905090810190601f1680156100cb5780820380516001836020036101000a031916815260200191505b509250505060405180910390f35b3480156100e557600080fd5b50610103600480360360208110156100fc57600080fd5b5035610416565b604051808681526020018060200180602001858152602001846001600160a01b03166001600160a01b03168152602001838103835287818151815260200191508051906020019080838360005b83811015610168578181015183820152602001610150565b50505050905090810190601f1680156101955780820380516001836020036101000a031916815260200191505b50838103825286518152865160209182019188019080838360005b838110156101c85781810151838201526020016101b0565b50505050905090810190601f1680156101f55780820380516001836020036101000a031916815260200191505b5097505050505050505060405180910390f35b6102256004803603602081101561021e57600080fd5b5035610563565b005b34801561023357600080fd5b5061023c610904565b60408051918252519081900360200190f35b34801561025a57600080fd5b506102256004803603604081101561027157600080fd5b81019060208101813564010000000081111561028c57600080fd5b82018360208201111561029e57600080fd5b803590602001918460018302840111640100000000831117156102c057600080fd5b91908080601f016020809104026020016040519081016040528093929190818152602001838380828437600092019190915250929594936020810193503591505064010000000081111561031357600080fd5b82018360208201111561032557600080fd5b8035906020019184600183028401116401000000008311171561034757600080fd5b91908080601f01602080910402602001604051908101604052809392919081815260200183838082843760009201919091525092955061090a945050505050565b6000805460408051602060026001851615610100026000190190941693909304601f8101849004840282018401909252818152929183018282801561040e5780601f106103e35761010080835404028352916020019161040e565b820191906000526020600020905b8154815290600101906020018083116103f157829003601f168201915b505050505081565b60026020818152600092835260409283902080546001808301805487519281161561010002600019011695909504601f81018590048502820185019096528581529094919390929091908301828280156104b15780601f10610486576101008083540402835291602001916104b1565b820191906000526020600020905b81548152906001019060200180831161049457829003601f168201915b50505060028085018054604080516020601f60001961010060018716150201909416959095049283018590048502810185019091528181529596959450909250908301828280156105435780601f1061051857610100808354040283529160200191610543565b820191906000526020600020905b81548152906001019060200180831161052657829003601f168201915b5050505060038301546004909301549192916001600160a01b0316905085565b60008111801561057557506001548111155b61057e57600080fd5b610586610b11565b600260008381526020019081526020016000206040518060a001604052908160008201548152602001600182018054600181600116156101000203166002900480601f0160208091040260200160405190810160405280929190818152602001828054600181600116156101000203166002900480156106475780601f1061061c57610100808354040283529160200191610647565b820191906000526020600020905b81548152906001019060200180831161062a57829003601f168201915b5050509183525050600282810180546040805160206001841615610100026000190190931694909404601f810183900483028501830190915280845293810193908301828280156106d95780601f106106ae576101008083540402835291602001916106d9565b820191906000526020600020905b8154815290600101906020018083116106bc57829003601f168201915b5050509183525050600382015460208201526004909101546001600160a01b03908116604092830152608083015191519293509091908216903480156108fc02916000818181858888f19350505050158015610739573d6000803e3d6000fd5b50606082018051340190526000838152600260209081526040909120835181558184015180518593610772926001850192910190610b49565b506040820151805161078e916002840191602090910190610b49565b506060820151816003015560808201518160040160006101000a8154816001600160a01b0302191690836001600160a01b031602179055509050507f1be5317bca8d3f70dc1efe89958be71bff36cdca33fc00a6423e25eb2f1d492f8383602001518460400151856060015185604051808681526020018060200180602001858152602001846001600160a01b03166001600160a01b03168152602001838103835287818151815260200191508051906020019080838360005b83811015610860578181015183820152602001610848565b50505050905090810190601f16801561088d5780820380516001836020036101000a031916815260200191505b50838103825286518152865160209182019188019080838360005b838110156108c05781810151838201526020016108a8565b50505050905090810190601f1680156108ed5780820380516001836020036101000a031916815260200191505b5097505050505050505060405180910390a1505050565b60015481565b600082511161091857600080fd5b600081511161092657600080fd5b3361093057600080fd5b6001805481018082556040805160a0810182528281526020808201878152828401879052600060608401819052336080850152948552600282529290932081518155915180519194929361098993850192910190610b49565b50604082015180516109a5916002840191602090910190610b49565b506060820151816003015560808201518160040160006101000a8154816001600160a01b0302191690836001600160a01b031602179055509050507fc1d8dfa99b3f84f95d3f0bc4a768addeb97b83b20aef7f9cb6729e126bafd2f96001548383600033604051808681526020018060200180602001858152602001846001600160a01b03166001600160a01b03168152602001838103835287818151815260200191508051906020019080838360005b83811015610a6e578181015183820152602001610a56565b50505050905090810190601f168015610a9b5780820380516001836020036101000a031916815260200191505b50838103825286518152865160209182019188019080838360005b83811015610ace578181015183820152602001610ab6565b50505050905090810190601f168015610afb5780820380516001836020036101000a031916815260200191505b5097505050505050505060405180910390a15050565b6040518060a001604052806000815260200160608152602001606081526020016000815260200160006001600160a01b031681525090565b828054600181600116156101000203166002900490600052602060002090601f016020900481019282601f10610b8a57805160ff1916838001178555610bb7565b82800160010185558215610bb7579182015b82811115610bb7578251825591602001919060010190610b9c565b50610bc3929150610bc7565b5090565b610be191905b80821115610bc35760008155600101610bcd565b9056fea265627a7a72315820997dd9f681c648d944fe00ca669ac812d04be09a142dc1c4fc6f66df43c5f66264736f6c63430005100032",
  "source": "pragma solidity >=0.4.22 <0.7.0;\n\ncontract SimpleStorage {\n  string public name;\n  uint public imageCount = 0;\n  mapping(uint => Image) public images;\n\n  struct Image {\n    uint id;\n    string hash;\n    string description;\n    uint tipAmount;\n    address payable author;\n  }\n\n  event ImageCreated(\n    uint id,\n    string hash,\n    string description,\n    uint tipAmount,\n    address payable author\n  );\n\n  event ImageTipped(\n    uint id,\n    string hash,\n    string description,\n    uint tipAmount,\n    address payable author\n  );\n\n  constructor() public {\n    name = \"SimpleStorage\";\n  }\n\n  function uploadImage(string memory _imgHash, string memory _description) public {\n    // Make sure the image hash exists\n    require(bytes(_imgHash).length > 0);\n    // Make sure image description exists\n    require(bytes(_description).length > 0);\n    // Make sure uploader address exists\n    require(msg.sender!=address(0));\n\n    // Increment image id\n    imageCount ++;\n\n    // Add Image to the contract\n    images[imageCount] = Image(imageCount, _imgHash, _description, 0, msg.sender);\n    // Trigger an event\n    emit ImageCreated(imageCount, _imgHash, _description, 0, msg.sender);\n  }\n\n  function tipImageOwner(uint _id) public payable {\n    // Make sure the id is valid\n    require(_id > 0 && _id <= imageCount);\n    // Fetch the image\n    Image memory _image = images[_id];\n    // Fetch the author\n    address payable _author = _image.author;\n    // Pay the author by sending them Ether\n    address(_author).transfer(msg.value);\n    // Increment the tip amount\n    _image.tipAmount = _image.tipAmount + msg.value;\n    // Update the image\n    images[_id] = _image;\n    // Trigger an event\n    emit ImageTipped(_id, _image.hash, _image.description, _image.tipAmount, _author);\n  }\n}\n",
  "sourcePath": "/home/jhanagustave/BC/DApp_file/src/contracts/SimpleStorage.sol",
  "compiler": {
    "name": "solc",
    "version": "0.5.16+commit.9c3226ce.Emscripten.clang"
  },
  "schemaVersion": "3.4.1",
  "updatedAt": "2021-07-30T21:42:10.707Z",
  "devdoc": {
    "methods": {}
  },
  "userdoc": {
    "methods": {}
  }
}